:100000000A128A11FC2F00308A000408840A820731
:10001000003444346F346F347234203463346C34BD
:100020006F34733465346434003444346F346F3463
:10003000723420344F34703465346E3421340034DB
:100040004C34693467346834743420344F344E345B
:10005000213400344C3469346734683474342034C7
:100060004F344634463400344C3469346734683491
:0A007000743420344F344E34003451
:100C24000A128A112F260A128A1183160313111429
:100C340008000A128A112F260A128A118316031336
:100C440011150800F0000A128A112F260A128A11BF
:100C5400700883120313930008008316031311080A
:100C64001F39031D362E372E2F2E14193A2E3B2EE4
:100C74002F2E0800283083120313940083160313C5
:100C84009101313093009401871507160800F7018C
:100C940001300A128A1187260A128A110D30FB00CC
:100CA400FB30FA00FA0B542EFB0B542E592E08007D
:100CB400F5007308031D5F2E612E0130622E003093
:100CC400F4007508F03974040838F60076080A123E
:100CD4008A11E3260A128A1108000A128A11492687
:100CE4000A128A11FA01FA0A03300A128A11C22678
:100CF4000A128A112C30FA000A128A11A4260A1246
:100D04008A118312031387160800F9007708F30089
:100D14007908F0390A128A115A260A128A117708B8
:100D2400F3007908F80003300310F80DFF3E031DAB
:100D3400962E0310780DF0390A128A115A260A12D7
:100D44008A110800B52EF701F70A7A0884000A12FE
:100D54008A1103200A128A110A128A1187260A129A
:100D64008A110130FA077A0884000A128A110320D2
:100D74000A128A11003A031DC02EC12EA52E0800A6
:100D840083120313A00020030319C92ECA2ED22EE6
:100D94007A08C03EA100003003180130A200D92E09
:100DA4007A08803EA100003003180130A200210817
:100DB400A300F70123080A128A1187260A128A114E
:100DC4000800F2000A128A1112260A128A114E3001
:100DD4000A128A1124260A128A11720804380A1285
:100DE4008A1124260A128A11F72EF82E000072089E
:100DF400FB390A128A1124260A128A110A128A114C
:100E04001B260A128A115330F100F10B072F080038
:100E14008312031388190F2F102F1C2F081A132F56
:100E2400142F1C2F881A172F182F1C2F081F1B2F45
:100E34001C2F402F87160A128A1149260A128A117A
:100E4400FA0101300A128A11C2260A128A110D30DF
:100E5400FA000A128A11A4260A128A11FA01FA0A5D
:100E640003300A128A11C2260A128A111830FA00B3
:100E74000A128A11A4260A128A11562F0A128A11FA
:100E840049260A128A11FA0101300A128A11C2266D
:100E94000A128A110130FA000A128A11A4260A12CF
:100EA4008A11831203138712080083160313061092
:100EB400FF3088000A128A113C260A128A110A128B
:100EC4008A11A6270A128A1183120313881C6B2F16
:100ED4006C2F712F0A128A110A270A128A1183129F
:100EE4000313081D762F772F7D2F0A128A116F2680
:100EF4000A128A117E2F871283120313081C832F70
:100F0400842F932FFA01FA0A03300A128A11C22697
:100F14000A128A112230FA000A128A11A4260A122D
:100F24008A110D3083120313A600AF30A500B5302B
:100F3400A400A40B9B2FA50B9B2FA60B9B2FA22FCA
:100F4400662F0A128A110028023083120313A200AA
:100F54004530A100A930A000A00BAE2FA10BAE2FED
:100F6400A20BAE2FF30130300A128A115A260A124C
:100F74008A11213083120313A1007530A000A00B45
:100F8400C12FA10BC12FC62FF30130300A128A11D1
:100F94005A260A128A11F93083120313A000A00BF7
:100FA400D12FF30130300A128A115A260A128A11FB
:100FB400F30120300A128A115A260A128A11F70103
:100FC40028300A128A1187260A128A11F7010C3076
:100FD4000A128A1187260A128A11F70106300A12A8
:100FE4008A1187260A128A110A128A1149260A12BC
:0C0FF4008A11080083010A128A11572F8D
:02400E00723FFF
:00000001FF
