:060000000A128A11DE2F36
:100E8C0070346134763469340034F20072088312A1
:100E9C00031388000610861006152130F1007630F9
:100EAC00F000F00B572FF10B572F00008312031398
:100EBC0006110800F200720883120313880006144E
:100ECC00861006152130F1007630F000F00B6C2FF7
:100EDC00F10B6C2F0000831203130611080038303D
:100EEC000A128A114B270A128A1106300A128A1129
:100EFC004B270A128A110C300A128A114B270A123C
:100F0C008A1101300A128A114B270A128A11080021
:100F1C00F701F801A22F77087307F5007508840014
:100F2C0000080A128A1160270A128A110130F70789
:100F3C000318F80A0030F8077408F500F601760873
:100F4C007802031DAB2F75087702031CAE2FAF2F51
:100F5C00912F0800831603138601880179308400D1
:100F6C008312031320088000840A21088000840A5D
:100F7C0022088000840A23088000840A2408800048
:100F8C000A128A1175270A128A1180300A128A11E4
:100F9C004B270A128A117930F3000430F4000A123C
:100FAC008A118E270A128A11DA2F0A128A11002846
:100FBC000A128A1146270A128A11A0000A128A11F3
:100FCC0047270A128A11A1000A128A1148270A120D
:100FDC008A11A2000A128A1149270A128A11A30047
:100FEC000A128A114A270A128A11A40083010A12D2
:040FFC008A11B02F77
:00000001FF
