:060000000A128A11FC2F18
:100DA600F2007208831203138800061486100615D3
:100DB6002130F1007630F000F00BDF2EF10BDF2E44
:100DC60000008312031306110800F2007208831252
:100DD600031388000610861006152130F1007630C0
:100DE600F000F00BF42EF10BF42E00008312031327
:100DF6000611080038300A128A11E8260A128A11EA
:100E060006300A128A11E8260A128A110C300A12D2
:100E16008A11E8260A128A1101300A128A11E82676
:100E26000A128A1108008316031386018801FF300F
:100E360087000A128A11FD260A128A1180300A12C8
:100E46008A11E8260A128A110A128A1130270A1212
:100E56008A11272F0A128A11002883120313861576
:100E660006128612071C382F392F452F31300A12E9
:100E76008A11D3260A128A11831203130718442FE4
:100E8600452F3F2F871C482F492F552F34300A12E4
:100E96008A11D3260A128A11831203138718542F34
:100EA600552F4F2F071D582F592F652F37300A12F0
:100EB6008A11D3260A128A11831203130719642F83
:100EC600652F5F2F871D682F692F752F2A300A120D
:100ED6008A11D3260A128A11831203138719742FD3
:100EE600752F6F2F861106168612071C7B2F7C2FF7
:100EF600882F32300A128A11D3260A128A118312D7
:100F060003130718872F882F822F871C8B2F8C2F70
:100F1600982F35300A128A11D3260A128A118312A3
:100F260003138718972F982F922F071D9B2F9C2FFF
:100F3600A82F38300A128A11D3260A128A11831270
:100F460003130719A72FA82FA22F871DAB2FAC2F8E
:100F5600B82F30300A128A11D3260A128A11831248
:100F660003138719B72FB82FB22F861106128616CC
:100F7600071CBE2FBF2FCB2F33300A128A11D32660
:100F86000A128A11831203130718CA2FCB2FC52FF3
:100F9600871CCE2FCF2FDB2F36300A128A11D3268D
:100FA6000A128A11831203138718DA2FDB2FD52F23
:100FB600071DDE2FDF2FEB2F39300A128A11D326B9
:100FC6000A128A11831203130719EA2FEB2FE52F52
:100FD600871DEE2FEF2FFB2F23300A128A11D326FF
:100FE6000A128A11831203138719FA2FFB2FF52F82
:0A0FF600080083010A128A11162F69
:00000001FF
